:020000040800F2
:1000000000500020C10E0008BF0E0008BD0E000801
:10001000BD0E0008BD0E0008BD0E00080000000067
:10002000000000000000000000000000BF0E0008FB
:10003000BF0E000800000000BF0E0008BF0E000841
:10004000BD0E0008BD0E0008BD0E0008BD0E000864
:10005000BD0E0008BD0E0008BD0E0008BD0E000854
:10006000BD0E0008BD0E0008BD0E0008BD0E000844
:10007000BD0E0008BD0E0008BD0E0008BD0E000834
:10008000BD0E0008BD0E0008BD0E0008BD0E000824
:10009000B1030008BD0E0008BD0E0008BD0E00082B
:1000A000BD0E0008BD0E0008BD0E0008BD0E000804
:1000B000BD0E0008BD0E0008BD0E0008BD0E0008F4
:1000C000BD0E0008BD0E0008BD0E0008BD0E0008E4
:1000D000BD0E0008BD0E0008BD0E0008ED030008AF
:1000E000BD0E0008BD0E0008BD0E0008BD0E0008C4
:1000F000BD0E0008BD0E0008BD0E0008BD0E0008B4
:10010000BD0E0008BD0E0008BD0E0008BD0E0008A3
:10011000BD0E0008BD0E0008BD0E0008BD0E000893
:10012000BD0E0008BD0E0008BD0E0008BD0E000883
:10013000BD0E0008BD0E0008BD0E0008BD0E000873
:10014000BD0E0008BD0E0008BD0E0008BD0E000863
:100150004FF4003382B00193019B13B1019B013B2B
:10016000F9E702B0704700001FB50DF10F030193CE
:100170000123009300238DF80F001A4640F2DE7130
:10018000064800F073FB064B1B7823B19DF80F1057
:10019000044800F077FE05B05DF804FB0064004001
:1001A000080400200048004070B5344D04462B7808
:1001B000032B14D8DFE803F002142348304B1B78DC
:1001C00013B10378AA2B05D02E4B2268D3F8F03751
:1001D0009A4204D15320FFF7C7FF01232B7070BD53
:1001E0000278294B50201A70022300222B70274BD3
:1001F0001A60FFF7B9FFBDE8704000F005BC234E60
:1002000001683368224A42F82310991C3160416822
:10021000013342F82310006800F0FEFB606800F034
:10022000FBFB1C4B18603368B3F5807F06D10323BA
:1002300043202B70BDE87040FFF796BF104B1B7832
:10024000002BCCD15020F5E70022104B1A6000F0B3
:10025000DBFB104B22681B689A4209D10A4A1378CB
:10026000013BDBB213700BB90523B7E70423B5E7F5
:100270004520FFF779FF0223B0E700BF0904002003
:100280000804002000F0FF1F1C04002014040020BC
:10029000080000201804002070B5024604464FF004
:1002A000FF3300F5806152F8040B914203EA00032A
:1002B000F9D1013302D0204600F00AFC0025054E9A
:1002C000601956F8041B043500F056FCB5F5806F34
:1002D000F6D170BD080000207FB500F0C3F800F033
:1002E00091F940F2DD7000F00DF900F05BF90023A8
:1002F00043F23312CDE90223284A40F2DE71D2F8EC
:10030000F0272748039202AA01920822254C009266
:100310001A4600F0ABFA3221234800F0C3FDFFF784
:1003200017FF2378012B05D02378022B02D02378E6
:10033000042B1AD100F006FC02261C4D2378052B55
:100340000ED02378042B08D12846FFF7A5FF5020B4
:1003500005F580652670FFF707FF00F091FCEDE7DB
:100360002846FFF799FF00F0F9FB2378052B02D10F
:100370004420FFF7F9FEFFF7EBFE00F007F900F06D
:1003800037F900F0B5F84FF0E021084B5A68C1F892
:10039000083D9047002004B070BD00BF00F0FF1F73
:1003A00000640040090400200048004000100008DC
:1003B000002110B58AB006AB03930DF11B03029325
:1003C0000DF11A0308AC01930DF1190301220591F7
:1003D0000093049407AB044800F0BFFA2046FFF7EF
:1003E000E3FE0AB010BD00BF0064004007B5184826
:1003F00000F05CFD0122174BC0B21A70164B8DF84D
:1004000007001B78022BDAB20AD004D9032A15D0D0
:1004100003B05DF804FB0DF10700FFF7C5FEF7E739
:100420000E490A78531CDBB20B700D49082B885417
:10043000EED10022094B0A481A70EEE707490A7804
:10044000531CDBB20B700649042B8854F0E700BF45
:100450000048004008040020090400200A0400208D
:100460000B04002008B5042000F0B0FC002000F0D0
:10047000B7FC002000F040FC002000F035FC02201A
:1004800000F09AFC062000F037FC164B164A40F2AA
:1004900002301360154A136000F0ACFC40F20330E8
:1004A00000F0A8FC4FF4417000F0A4FC40F286205C
:1004B00000F0A0FC40F2993000F09CFC40F2923039
:1004C00000F098FC4FF4407000F094FC062000F01F
:1004D0000BFC4FF4FA6000F0ABFBBDE8084000F005
:1004E00097BB00BF00366E01000000200400002012
:1004F00008B5002000F060FCBDE80840002000F0D6
:100500002BBC000070B51F4C8AB005464FF4006349
:1005100002222046002100F03BFB20464FF4006100
:1005200000F070FB20464FF4805302220321002488
:1005300000F02EFB0C23CDE905434FF4A023124E0F
:100540002146CDE90343012223463046CDE9074445
:10055000CDE90144009400F091F80123690122469D
:100560002046CDE9014389B22346009400F06AF9A0
:10057000142000F0EFFC022130460AB0BDE87040C4
:1005800000F070B9000801400064004008B504485C
:1005900000F068F8BDE80840142000F0E9BC00BF96
:1005A0000064004010B5104C4FF480630222032118
:1005B0000E4800F0EDFA20464FF4E13100F03AFC2D
:1005C0002046082100F04AFC0C21204600F04FFC98
:1005D000204600F062FC204600F04FFCBDE81040D1
:1005E000272000F0B7BC00BF00480040000C0140CD
:1005F00008B5272000F0BCFCBDE8084040F21220FE
:1006000000F006BC38B500F01BFA154C1421044468
:10061000A402204600F006FA054600214FF00070C3
:1006200000F0E6FA236DAB4212D104F150052068C8
:1006300070B1A17969B90222A38800F0A9FAE3791F
:10064000A188206843B100F0DDFA0834AC42EED155
:1006500038BD00220321EFE700F0D6FAF5E700BF2E
:10066000FDFF4100044B98420CBF40F2192040F2BC
:100670001A2000F0CDBB00BF006400402DE9F3411B
:100680000468884624F0020404600468964644F036
:10069000010404604FF6FF749DF820C09DF82410FB
:1006A0009DF828209DF83C609DF840700194019CC5
:1006B000051D013C019414B14468E407F7D52C688A
:1006C000E4076ED50024C4610468B8F1000F4FD070
:1006D00044F0800404600468BEF1000F4BD044F085
:1006E00040040460002B49D0036843F020030360FA
:1006F0000368BCF1000F45D043F0100303600368AA
:10070000002942D043F0080303600368002A3FD069
:1007100043F004030360C369002F3CD043F000435F
:10072000C361C369002E39D043F08043C3610E9B7F
:100730000D99013BC3F309030B430C99C2690B43A9
:100740000B990B431343C361036823F00103036058
:100750004FF6FF730193019B013B019313B12B688B
:10076000DB07F8D4286800F0010002B0BDE8F08192
:1007700024F08004AEE724F04004B2E7036823F0DD
:100780002003B4E723F01003B8E723F00803BBE726
:1007900023F00403BEE723F00043C1E723F08043C6
:1007A000C4E70120E1E70000F0B50125244C9DF8E5
:1007B0001C70D4F80066854046F00106C4F8006657
:1007C000D4F81CE6EE432EEA050EC4F81CE641B34D
:1007D000D4F80C162943C4F80C1632B3D4F8042606
:1007E0002A4300F1006000F6C840C4F80426C000A7
:1007F0000360069A059B4360114BD2B1D3F81426CF
:100800002A43C3F8142627B1D3F81C261543C3F88E
:100810001C560B4AD2F8003623F00103C2F800360A
:10082000F0BDD4F80C163140D5E7D4F80426324098
:10083000D7E7D3F814261640C3F81466E3E700BFE1
:100840000060004030B4BDF808409DF8105044EA04
:100850000344049542EA01430294012230BC002182
:10086000FFF7A2BF43690B43436170472DE9F04195
:10087000804680689DF818E04501079E2AD4D8F884
:10088000080004012AD4D8F80800C00050D54FF45D
:10089000D075022005EB080422B3C90041F0040121
:1008A00045F808101BB1236843F002032360636816
:1008B00023F00F03636062680EF00F03134363605D
:1008C0000EF1FF33072B2AD8DFE803F02623201B85
:1008D0001815120E4FF4C0750020DBE74FF4C875F1
:1008E0000120D7E74905DBE70027F37963F31F67AA
:1008F000B37963F31747737963F30F27337963F39E
:1009000007074FF0000CF37863F31F6CB37863F3C1
:10091000174C737863F30F2C337863F3070CC4F828
:1009200008C0E760236843F001032360BDE8F0815D
:100930004FF0FF30FAE721B9C36843F02003C360EA
:100940007047036943F020030361704719B9C06819
:1009500000F0030070470069FAE72DE9F347DDF87E
:1009600028A00446DDE90E56FFF7F0FF88468146D1
:100970004FF4E0714FF4D870CDE9000102A901EB0A
:10098000880151F8081C6058671810F0040015BF62
:1009900001208AF800008AF80000605816BF6058ED
:1009A000400DC008186061580B9BC1F340011970DD
:1009B00079680C9B090A197079680D9B01F00F0189
:1009C000197016B17B681B0C3380BE68FB68C6F3D8
:1009D00007216970C6F30741A970C3F307212E7080
:1009E0002B71C6F307666971C3F30741C3F307634D
:1009F000EE70A971EB711AB141462046FFF79BFFDB
:100A0000484602B0BDE8F087024A936843F001030C
:100A10009360704700300240014B186018687047BF
:100A200000300240002310B5044A8B4201DB1068FD
:100A300010BD50F8234001331460F6E70030024047
:100A4000014BB3F8E007704700F0FF1F38B5064DC3
:100A5000EC68FFF7F5FFB0F5007F84BFE86C044356
:100A600004F0350038BD00BF0020024038B5044610
:100A70000D4600F07BF8FFF7E3FFB0F5007F124B67
:100A800017D9124A944214D91A6D42F001021A651C
:100A9000258000F06BF8FFF7D3FFB0F5007F0A4B1D
:100AA0000CD90A4A944209D91A6D22F001021A653A
:100AB00038BD1A6942F001021A61E9E71A6922F0A9
:100AC00001021A61F4E700BF00200240FFFF07089F
:100AD00010B5044600F04AF8FFF7B2FFB0F5007F0A
:100AE000164B1BD9164A944218D91A6D42F00202CD
:100AF0001A655C651A6D42F040021A6500F036F81E
:100B0000FFF79EFFB0F5007F0C4B11D90C4A9442C1
:100B10000ED91A6D22F002021A6510BD1A6942F050
:100B200002021A615C611A6942F040021A61E5E74B
:100B30001A6922F002021A61EFE700BF00200240AA
:100B4000FFFF0708034B044A5A6002F188325A60DB
:100B5000704700BF0020024023016745024A136925
:100B600043F08003136170470020024008B5FFF78F
:100B70006DFFC307FBD408BD38B505460C4689B2E6
:100B8000FFF774FF210CA81CBDE83840FFF76EBFCB
:100B90002DE9F04100264FF00F0E9C460368476890
:100BA0004CFA06F4E4071BD5072E94BF9846B846C6
:100BB000B4B24FEA84048ABF203CA4B2A4B20EFAB5
:100BC00004F528EA0508A51CADB202FA05F501FAFC
:100BD00004F42C4344EA0804072E94BF2346274616
:100BE0000136102EDCD103604760BDE8F0810000C3
:100BF000034A536823F0E0630B4303435360704799
:100C00000000014001617047090401617047000064
:100C10004CF6CC42014B1A60704700BF00300040D8
:100C2000024BD868C0F34000704700BF003000405E
:100C3000C000012838BF0120002208B5411E5FEA2C
:100C4000113CD3B202F1010215D1062B84BF40F64C
:100C5000FF710623094AD068C007FCD445F25550FD
:100C600010605360FFF7DCFF0028FBD145F25553BD
:100C70001360916008BD4008E0E700BF003000400D
:100C80004AF6AA22014B1A60704700BF00300040AC
:100C9000062824D8DFE800F004090E13181D2000F0
:100CA000104B1868C0F3406070470E4B1868C0F3D3
:100CB000C06070470B4B1868C0F340707047094B19
:100CC0001868C0F340407047064B1868C0F34000F6
:100CD0007047044B186AF9E7024B586AF6E70020A0
:100CE000704700BF00100240024608B51046FFF7EB
:100CF000CFFF0028FAD008BD06282AD8DFE800F088
:100D0000040A0F14191E2400124A136843F080735A
:100D1000136070470F4A136843F08063F8E70D4A89
:100D2000136843F08053F3E70A4A136843F48033AF
:100D3000EEE7084A136843F00103E9E7054A136A3E
:100D400043F0010313627047024A536A43F0010300
:100D5000536270470010024006282AD8DFE800F0EE
:100D6000040A0F14191E2400124A136823F080731A
:100D7000136070470F4A136823F08063F8E70D4A49
:100D8000136823F08053F3E70A4A136823F480338F
:100D9000EEE7084A136823F00103E9E7054A136AFE
:100DA00023F0010313627047024A536A23F00103E0
:100DB0005362704700100240034A536823F0030354
:100DC00003435360704700BF00100240034A53685A
:100DD00023F4701343EA80435360704700100240CD
:100DE000034A536823F4803343EA00435360704757
:100DF000001002400122430903F1804303F504334C
:100E0000196800F01F0002FA00F0084318607047EC
:100E10000122430903F1804303F50433196800F00C
:100E20001F0002FA00F0014319601A6822EA00006C
:100E300018607047064A074B90421B6804BF064B78
:100E40001B6803EB5103B3FBF1F38360704700BFF2
:100E5000003801400000002004000020C368082979
:100E60000CBF23F4805343F48053C3607047C368BE
:100E700023F00C030B43C3607047C36843F4005373
:100E8000C360704738B504460D4600F013F8294694
:100E90002046BDE8384000F005B8C36843F02003A1
:100EA000C3607047C1F30801416070474068C0F3F8
:100EB0000800704703681B06FCD57047FEE77047C3
:100EC00038B51A4A1A4B1B498B421AD300211A4AC9
:100ED00093421BD34FF0E022D2F8143D174C43F459
:100EE0000073174DC2F8143DAC4212D3154C164D89
:100EF000AC4212D3FFF7F0F9144C154DAC4210D3AD
:100F000038BD52F8040B43F8040BDDE743F8041B2B
:100F1000DEE754F8043B9847E6E754F8043B98476B
:100F2000E6E754F8043B9847E8E700BF880F00085D
:100F3000000000200800002020040020880F000886
:100F4000880F0008880F0008880F0008880F000825
:100F5000880F0008012243099B0003F1604300F061
:100F60001F0003F5614302FA00F0186070470000AB
:100F70000123420900F01F0003FA00F0014B43F87F
:080F80002200704780E100E04F
:080F880000127A0000127A0049
:0400000508000EC120
:00000001FF
